{
  "abi": [
    {
      "inputs": [],
      "name": "decrement",
      "outputs": [],
      "stateMutability": "nonpayable",
      "type": "function"
    },
    {
      "inputs": [],
      "name": "getCurrentNumber",
      "outputs": [
        {
          "internalType": "uint256",
          "name": "",
          "type": "uint256"
        }
      ],
      "stateMutability": "view",
      "type": "function"
    },
    {
      "inputs": [],
      "name": "increment",
      "outputs": [],
      "stateMutability": "nonpayable",
      "type": "function"
    }
  ],
  "bytecode": {
    "object": "0x608060405234801561001057600080fd5b50610103806100206000396000f3fe6080604052348015600f57600080fd5b5060043610603c5760003560e01c80632baeceb71460415780635c2fbc3e146049578063d09de08a14605e575b600080fd5b60476064565b005b60005460405190815260200160405180910390f35b60476080565b60005415607e5760008054908060788360a3565b91905055505b565b60008054908060788360b7565b634e487b7160e01b600052601160045260246000fd5b60008160af5760af608d565b506000190190565b60006001820160c65760c6608d565b506001019056fea2646970667358221220ccde8c5aca4da1ba94182e503f79f9e29e7f7978250ec1b99d557ecd42bc644064736f6c63430008100033",
    "linkReferences": {}
  },
  "methodIdentifiers": {
    "decrement()": "2baeceb7",
    "getCurrentNumber()": "5c2fbc3e",
    "increment()": "d09de08a"
  },
  "id": 18
}